{
  "_format": "hh-sol-artifact-1",
  "contractName": "DOTMToken",
  "sourceName": "contracts/DOTMToken.sol",
  "abi": [
    {
      "inputs": [],
      "stateMutability": "nonpayable",
      "type": "constructor"
    },
    {
      "inputs": [
        {
          "internalType": "address",
          "name": "spender",
          "type": "address"
        },
        {
          "internalType": "uint256",
          "name": "allowance",
          "type": "uint256"
        },
        {
          "internalType": "uint256",
          "name": "needed",
          "type": "uint256"
        }
      ],
      "name": "ERC20InsufficientAllowance",
      "type": "error"
    },
    {
      "inputs": [
        {
          "internalType": "address",
          "name": "sender",
          "type": "address"
        },
        {
          "internalType": "uint256",
          "name": "balance",
          "type": "uint256"
        },
        {
          "internalType": "uint256",
          "name": "needed",
          "type": "uint256"
        }
      ],
      "name": "ERC20InsufficientBalance",
      "type": "error"
    },
    {
      "inputs": [
        {
          "internalType": "address",
          "name": "approver",
          "type": "address"
        }
      ],
      "name": "ERC20InvalidApprover",
      "type": "error"
    },
    {
      "inputs": [
        {
          "internalType": "address",
          "name": "receiver",
          "type": "address"
        }
      ],
      "name": "ERC20InvalidReceiver",
      "type": "error"
    },
    {
      "inputs": [
        {
          "internalType": "address",
          "name": "sender",
          "type": "address"
        }
      ],
      "name": "ERC20InvalidSender",
      "type": "error"
    },
    {
      "inputs": [
        {
          "internalType": "address",
          "name": "spender",
          "type": "address"
        }
      ],
      "name": "ERC20InvalidSpender",
      "type": "error"
    },
    {
      "inputs": [
        {
          "internalType": "address",
          "name": "owner",
          "type": "address"
        }
      ],
      "name": "OwnableInvalidOwner",
      "type": "error"
    },
    {
      "inputs": [
        {
          "internalType": "address",
          "name": "account",
          "type": "address"
        }
      ],
      "name": "OwnableUnauthorizedAccount",
      "type": "error"
    },
    {
      "anonymous": false,
      "inputs": [
        {
          "indexed": true,
          "internalType": "address",
          "name": "owner",
          "type": "address"
        },
        {
          "indexed": true,
          "internalType": "address",
          "name": "spender",
          "type": "address"
        },
        {
          "indexed": false,
          "internalType": "uint256",
          "name": "value",
          "type": "uint256"
        }
      ],
      "name": "Approval",
      "type": "event"
    },
    {
      "anonymous": false,
      "inputs": [
        {
          "indexed": true,
          "internalType": "address",
          "name": "previousOwner",
          "type": "address"
        },
        {
          "indexed": true,
          "internalType": "address",
          "name": "newOwner",
          "type": "address"
        }
      ],
      "name": "OwnershipTransferred",
      "type": "event"
    },
    {
      "anonymous": false,
      "inputs": [
        {
          "indexed": true,
          "internalType": "address",
          "name": "from",
          "type": "address"
        },
        {
          "indexed": true,
          "internalType": "address",
          "name": "to",
          "type": "address"
        },
        {
          "indexed": false,
          "internalType": "uint256",
          "name": "value",
          "type": "uint256"
        }
      ],
      "name": "Transfer",
      "type": "event"
    },
    {
      "inputs": [],
      "name": "INITIAL_SUPPLY",
      "outputs": [
        {
          "internalType": "uint256",
          "name": "",
          "type": "uint256"
        }
      ],
      "stateMutability": "view",
      "type": "function"
    },
    {
      "inputs": [
        {
          "internalType": "address",
          "name": "owner",
          "type": "address"
        },
        {
          "internalType": "address",
          "name": "spender",
          "type": "address"
        }
      ],
      "name": "allowance",
      "outputs": [
        {
          "internalType": "uint256",
          "name": "",
          "type": "uint256"
        }
      ],
      "stateMutability": "view",
      "type": "function"
    },
    {
      "inputs": [
        {
          "internalType": "address",
          "name": "spender",
          "type": "address"
        },
        {
          "internalType": "uint256",
          "name": "value",
          "type": "uint256"
        }
      ],
      "name": "approve",
      "outputs": [
        {
          "internalType": "bool",
          "name": "",
          "type": "bool"
        }
      ],
      "stateMutability": "nonpayable",
      "type": "function"
    },
    {
      "inputs": [
        {
          "internalType": "address",
          "name": "account",
          "type": "address"
        }
      ],
      "name": "balanceOf",
      "outputs": [
        {
          "internalType": "uint256",
          "name": "",
          "type": "uint256"
        }
      ],
      "stateMutability": "view",
      "type": "function"
    },
    {
      "inputs": [],
      "name": "dataRewardPercentage",
      "outputs": [
        {
          "internalType": "uint256",
          "name": "",
          "type": "uint256"
        }
      ],
      "stateMutability": "view",
      "type": "function"
    },
    {
      "inputs": [],
      "name": "decimals",
      "outputs": [
        {
          "internalType": "uint8",
          "name": "",
          "type": "uint8"
        }
      ],
      "stateMutability": "view",
      "type": "function"
    },
    {
      "inputs": [
        {
          "internalType": "address",
          "name": "to",
          "type": "address"
        },
        {
          "internalType": "uint256",
          "name": "amount",
          "type": "uint256"
        }
      ],
      "name": "mint",
      "outputs": [],
      "stateMutability": "nonpayable",
      "type": "function"
    },
    {
      "inputs": [],
      "name": "name",
      "outputs": [
        {
          "internalType": "string",
          "name": "",
          "type": "string"
        }
      ],
      "stateMutability": "view",
      "type": "function"
    },
    {
      "inputs": [],
      "name": "owner",
      "outputs": [
        {
          "internalType": "address",
          "name": "",
          "type": "address"
        }
      ],
      "stateMutability": "view",
      "type": "function"
    },
    {
      "inputs": [],
      "name": "renounceOwnership",
      "outputs": [],
      "stateMutability": "nonpayable",
      "type": "function"
    },
    {
      "inputs": [
        {
          "internalType": "address",
          "name": "user",
          "type": "address"
        },
        {
          "internalType": "uint256",
          "name": "purchaseAmount",
          "type": "uint256"
        }
      ],
      "name": "rewardDataPurchase",
      "outputs": [],
      "stateMutability": "nonpayable",
      "type": "function"
    },
    {
      "inputs": [
        {
          "internalType": "uint256",
          "name": "newPercentage",
          "type": "uint256"
        }
      ],
      "name": "setDataRewardPercentage",
      "outputs": [],
      "stateMutability": "nonpayable",
      "type": "function"
    },
    {
      "inputs": [],
      "name": "symbol",
      "outputs": [
        {
          "internalType": "string",
          "name": "",
          "type": "string"
        }
      ],
      "stateMutability": "view",
      "type": "function"
    },
    {
      "inputs": [],
      "name": "totalSupply",
      "outputs": [
        {
          "internalType": "uint256",
          "name": "",
          "type": "uint256"
        }
      ],
      "stateMutability": "view",
      "type": "function"
    },
    {
      "inputs": [
        {
          "internalType": "address",
          "name": "to",
          "type": "address"
        },
        {
          "internalType": "uint256",
          "name": "value",
          "type": "uint256"
        }
      ],
      "name": "transfer",
      "outputs": [
        {
          "internalType": "bool",
          "name": "",
          "type": "bool"
        }
      ],
      "stateMutability": "nonpayable",
      "type": "function"
    },
    {
      "inputs": [
        {
          "internalType": "address",
          "name": "from",
          "type": "address"
        },
        {
          "internalType": "address",
          "name": "to",
          "type": "address"
        },
        {
          "internalType": "uint256",
          "name": "value",
          "type": "uint256"
        }
      ],
      "name": "transferFrom",
      "outputs": [
        {
          "internalType": "bool",
          "name": "",
          "type": "bool"
        }
      ],
      "stateMutability": "nonpayable",
      "type": "function"
    },
    {
      "inputs": [
        {
          "internalType": "address",
          "name": "newOwner",
          "type": "address"
        }
      ],
      "name": "transferOwnership",
      "outputs": [],
      "stateMutability": "nonpayable",
      "type": "function"
    }
  ],
  "bytecode": "0x6080604052600a6006553480156200001657600080fd5b50336040518060400160405280600a81526020017f444f544d20546f6b656e000000000000000000000000000000000000000000008152506040518060400160405280600481526020017f444f544d00000000000000000000000000000000000000000000000000000000815250816003908162000095919062000750565b508060049081620000a7919062000750565b505050600073ffffffffffffffffffffffffffffffffffffffff168173ffffffffffffffffffffffffffffffffffffffff16036200011f5760006040517f1e4fbdf70000000000000000000000000000000000000000000000000000000081526004016200011691906200087c565b60405180910390fd5b62000130816200015360201b60201c565b506200014d3369152d02c7e14af68000006200021960201b60201c565b6200096e565b6000600560009054906101000a900473ffffffffffffffffffffffffffffffffffffffff16905081600560006101000a81548173ffffffffffffffffffffffffffffffffffffffff021916908373ffffffffffffffffffffffffffffffffffffffff1602179055508173ffffffffffffffffffffffffffffffffffffffff168173ffffffffffffffffffffffffffffffffffffffff167f8be0079c531659141344cd1fd0a4f28419497f9722a3daafe3b4186f6b6457e060405160405180910390a35050565b600073ffffffffffffffffffffffffffffffffffffffff168273ffffffffffffffffffffffffffffffffffffffff16036200028e5760006040517fec442f050000000000000000000000000000000000000000000000000000000081526004016200028591906200087c565b60405180910390fd5b620002a260008383620002a660201b60201c565b5050565b600073ffffffffffffffffffffffffffffffffffffffff168373ffffffffffffffffffffffffffffffffffffffff1603620002fc578060026000828254620002ef9190620008c8565b92505081905550620003d2565b60008060008573ffffffffffffffffffffffffffffffffffffffff1673ffffffffffffffffffffffffffffffffffffffff168152602001908152602001600020549050818110156200038b578381836040517fe450d38c000000000000000000000000000000000000000000000000000000008152600401620003829392919062000914565b60405180910390fd5b8181036000808673ffffffffffffffffffffffffffffffffffffffff1673ffffffffffffffffffffffffffffffffffffffff16815260200190815260200160002081905550505b600073ffffffffffffffffffffffffffffffffffffffff168273ffffffffffffffffffffffffffffffffffffffff16036200041d57806002600082825403925050819055506200046a565b806000808473ffffffffffffffffffffffffffffffffffffffff1673ffffffffffffffffffffffffffffffffffffffff168152602001908152602001600020600082825401925050819055505b8173ffffffffffffffffffffffffffffffffffffffff168373ffffffffffffffffffffffffffffffffffffffff167fddf252ad1be2c89b69c2b068fc378daa952ba7f163c4a11628f55a4df523b3ef83604051620004c9919062000951565b60405180910390a3505050565b600081519050919050565b7f4e487b7100000000000000000000000000000000000000000000000000000000600052604160045260246000fd5b7f4e487b7100000000000000000000000000000000000000000000000000000000600052602260045260246000fd5b600060028204905060018216806200055857607f821691505b6020821081036200056e576200056d62000510565b5b50919050565b60008190508160005260206000209050919050565b60006020601f8301049050919050565b600082821b905092915050565b600060088302620005d87fffffffffffffffffffffffffffffffffffffffffffffffffffffffffffffffff8262000599565b620005e4868362000599565b95508019841693508086168417925050509392505050565b6000819050919050565b6000819050919050565b6000620006316200062b6200062584620005fc565b62000606565b620005fc565b9050919050565b6000819050919050565b6200064d8362000610565b620006656200065c8262000638565b848454620005a6565b825550505050565b600090565b6200067c6200066d565b6200068981848462000642565b505050565b5b81811015620006b157620006a560008262000672565b6001810190506200068f565b5050565b601f8211156200070057620006ca8162000574565b620006d58462000589565b81016020851015620006e5578190505b620006fd620006f48562000589565b8301826200068e565b50505b505050565b600082821c905092915050565b6000620007256000198460080262000705565b1980831691505092915050565b600062000740838362000712565b9150826002028217905092915050565b6200075b82620004d6565b67ffffffffffffffff811115620007775762000776620004e1565b5b6200078382546200053f565b62000790828285620006b5565b600060209050601f831160018114620007c85760008415620007b3578287015190505b620007bf858262000732565b8655506200082f565b601f198416620007d88662000574565b60005b828110156200080257848901518255600182019150602085019450602081019050620007db565b868310156200082257848901516200081e601f89168262000712565b8355505b6001600288020188555050505b505050505050565b600073ffffffffffffffffffffffffffffffffffffffff82169050919050565b6000620008648262000837565b9050919050565b620008768162000857565b82525050565b60006020820190506200089360008301846200086b565b92915050565b7f4e487b7100000000000000000000000000000000000000000000000000000000600052601160045260246000fd5b6000620008d582620005fc565b9150620008e283620005fc565b9250828201905080821115620008fd57620008fc62000899565b5b92915050565b6200090e81620005fc565b82525050565b60006060820190506200092b60008301866200086b565b6200093a602083018562000903565b62000949604083018462000903565b949350505050565b600060208201905062000968600083018462000903565b92915050565b611425806200097e6000396000f3fe608060405234801561001057600080fd5b506004361061010b5760003560e01c806370a08231116100a2578063a9059cbb11610071578063a9059cbb14610296578063dd62ed3e146102c6578063f2a6bf1d146102f6578063f2c3cdff14610314578063f2fde38b146103305761010b565b806370a0823114610220578063715018a6146102505780638da5cb5b1461025a57806395d89b41146102785761010b565b80632ff2e9dc116100de5780632ff2e9dc146101ac578063313ce567146101ca57806340c10f19146101e857806352d8d94d146102045761010b565b806306fdde0314610110578063095ea7b31461012e57806318160ddd1461015e57806323b872dd1461017c575b600080fd5b61011861034c565b6040516101259190610f3e565b60405180910390f35b61014860048036038101906101439190610ff9565b6103de565b6040516101559190611054565b60405180910390f35b610166610401565b604051610173919061107e565b60405180910390f35b61019660048036038101906101919190611099565b61040b565b6040516101a39190611054565b60405180910390f35b6101b461043a565b6040516101c1919061107e565b60405180910390f35b6101d2610448565b6040516101df9190611108565b60405180910390f35b61020260048036038101906101fd9190610ff9565b610451565b005b61021e60048036038101906102199190610ff9565b610467565b005b61023a60048036038101906102359190611123565b61049c565b604051610247919061107e565b60405180910390f35b6102586104e4565b005b6102626104f8565b60405161026f919061115f565b60405180910390f35b610280610522565b60405161028d9190610f3e565b60405180910390f35b6102b060048036038101906102ab9190610ff9565b6105b4565b6040516102bd9190611054565b60405180910390f35b6102e060048036038101906102db919061117a565b6105d7565b6040516102ed919061107e565b60405180910390f35b6102fe61065e565b60405161030b919061107e565b60405180910390f35b61032e600480360381019061032991906111ba565b610664565b005b61034a60048036038101906103459190611123565b6106ba565b005b60606003805461035b90611216565b80601f016020809104026020016040519081016040528092919081815260200182805461038790611216565b80156103d45780601f106103a9576101008083540402835291602001916103d4565b820191906000526020600020905b8154815290600101906020018083116103b757829003601f168201915b5050505050905090565b6000806103e9610740565b90506103f6818585610748565b600191505092915050565b6000600254905090565b600080610416610740565b905061042385828561075a565b61042e8585856107ef565b60019150509392505050565b69152d02c7e14af680000081565b60006012905090565b6104596108e3565b610463828261096a565b5050565b61046f6108e3565b60006064600654836104819190611276565b61048b91906112e7565b9050610497838261096a565b505050565b60008060008373ffffffffffffffffffffffffffffffffffffffff1673ffffffffffffffffffffffffffffffffffffffff168152602001908152602001600020549050919050565b6104ec6108e3565b6104f660006109ec565b565b6000600560009054906101000a900473ffffffffffffffffffffffffffffffffffffffff16905090565b60606004805461053190611216565b80601f016020809104026020016040519081016040528092919081815260200182805461055d90611216565b80156105aa5780601f1061057f576101008083540402835291602001916105aa565b820191906000526020600020905b81548152906001019060200180831161058d57829003601f168201915b5050505050905090565b6000806105bf610740565b90506105cc8185856107ef565b600191505092915050565b6000600160008473ffffffffffffffffffffffffffffffffffffffff1673ffffffffffffffffffffffffffffffffffffffff16815260200190815260200160002060008373ffffffffffffffffffffffffffffffffffffffff1673ffffffffffffffffffffffffffffffffffffffff16815260200190815260200160002054905092915050565b60065481565b61066c6108e3565b60648111156106b0576040517f08c379a00000000000000000000000000000000000000000000000000000000081526004016106a790611364565b60405180910390fd5b8060068190555050565b6106c26108e3565b600073ffffffffffffffffffffffffffffffffffffffff168173ffffffffffffffffffffffffffffffffffffffff16036107345760006040517f1e4fbdf700000000000000000000000000000000000000000000000000000000815260040161072b919061115f565b60405180910390fd5b61073d816109ec565b50565b600033905090565b6107558383836001610ab2565b505050565b600061076684846105d7565b90507fffffffffffffffffffffffffffffffffffffffffffffffffffffffffffffffff8110156107e957818110156107d9578281836040517ffb8f41b20000000000000000000000000000000000000000000000000000000081526004016107d093929190611384565b60405180910390fd5b6107e884848484036000610ab2565b5b50505050565b600073ffffffffffffffffffffffffffffffffffffffff168373ffffffffffffffffffffffffffffffffffffffff16036108615760006040517f96c6fd1e000000000000000000000000000000000000000000000000000000008152600401610858919061115f565b60405180910390fd5b600073ffffffffffffffffffffffffffffffffffffffff168273ffffffffffffffffffffffffffffffffffffffff16036108d35760006040517fec442f050000000000000000000000000000000000000000000000000000000081526004016108ca919061115f565b60405180910390fd5b6108de838383610c89565b505050565b6108eb610740565b73ffffffffffffffffffffffffffffffffffffffff166109096104f8565b73ffffffffffffffffffffffffffffffffffffffff16146109685761092c610740565b6040517f118cdaa700000000000000000000000000000000000000000000000000000000815260040161095f919061115f565b60405180910390fd5b565b600073ffffffffffffffffffffffffffffffffffffffff168273ffffffffffffffffffffffffffffffffffffffff16036109dc5760006040517fec442f050000000000000000000000000000000000000000000000000000000081526004016109d3919061115f565b60405180910390fd5b6109e860008383610c89565b5050565b6000600560009054906101000a900473ffffffffffffffffffffffffffffffffffffffff16905081600560006101000a81548173ffffffffffffffffffffffffffffffffffffffff021916908373ffffffffffffffffffffffffffffffffffffffff1602179055508173ffffffffffffffffffffffffffffffffffffffff168173ffffffffffffffffffffffffffffffffffffffff167f8be0079c531659141344cd1fd0a4f28419497f9722a3daafe3b4186f6b6457e060405160405180910390a35050565b600073ffffffffffffffffffffffffffffffffffffffff168473ffffffffffffffffffffffffffffffffffffffff1603610b245760006040517fe602df05000000000000000000000000000000000000000000000000000000008152600401610b1b919061115f565b60405180910390fd5b600073ffffffffffffffffffffffffffffffffffffffff168373ffffffffffffffffffffffffffffffffffffffff1603610b965760006040517f94280d62000000000000000000000000000000000000000000000000000000008152600401610b8d919061115f565b60405180910390fd5b81600160008673ffffffffffffffffffffffffffffffffffffffff1673ffffffffffffffffffffffffffffffffffffffff16815260200190815260200160002060008573ffffffffffffffffffffffffffffffffffffffff1673ffffffffffffffffffffffffffffffffffffffff168152602001908152602001600020819055508015610c83578273ffffffffffffffffffffffffffffffffffffffff168473ffffffffffffffffffffffffffffffffffffffff167f8c5be1e5ebec7d5bd14f71427d1e84f3dd0314c0f7b2291e5b200ac8c7c3b92584604051610c7a919061107e565b60405180910390a35b50505050565b600073ffffffffffffffffffffffffffffffffffffffff168373ffffffffffffffffffffffffffffffffffffffff1603610cdb578060026000828254610ccf91906113bb565b92505081905550610dae565b60008060008573ffffffffffffffffffffffffffffffffffffffff1673ffffffffffffffffffffffffffffffffffffffff16815260200190815260200160002054905081811015610d67578381836040517fe450d38c000000000000000000000000000000000000000000000000000000008152600401610d5e93929190611384565b60405180910390fd5b8181036000808673ffffffffffffffffffffffffffffffffffffffff1673ffffffffffffffffffffffffffffffffffffffff16815260200190815260200160002081905550505b600073ffffffffffffffffffffffffffffffffffffffff168273ffffffffffffffffffffffffffffffffffffffff1603610df75780600260008282540392505081905550610e44565b806000808473ffffffffffffffffffffffffffffffffffffffff1673ffffffffffffffffffffffffffffffffffffffff168152602001908152602001600020600082825401925050819055505b8173ffffffffffffffffffffffffffffffffffffffff168373ffffffffffffffffffffffffffffffffffffffff167fddf252ad1be2c89b69c2b068fc378daa952ba7f163c4a11628f55a4df523b3ef83604051610ea1919061107e565b60405180910390a3505050565b600081519050919050565b600082825260208201905092915050565b60005b83811015610ee8578082015181840152602081019050610ecd565b60008484015250505050565b6000601f19601f8301169050919050565b6000610f1082610eae565b610f1a8185610eb9565b9350610f2a818560208601610eca565b610f3381610ef4565b840191505092915050565b60006020820190508181036000830152610f588184610f05565b905092915050565b600080fd5b600073ffffffffffffffffffffffffffffffffffffffff82169050919050565b6000610f9082610f65565b9050919050565b610fa081610f85565b8114610fab57600080fd5b50565b600081359050610fbd81610f97565b92915050565b6000819050919050565b610fd681610fc3565b8114610fe157600080fd5b50565b600081359050610ff381610fcd565b92915050565b600080604083850312156110105761100f610f60565b5b600061101e85828601610fae565b925050602061102f85828601610fe4565b9150509250929050565b60008115159050919050565b61104e81611039565b82525050565b60006020820190506110696000830184611045565b92915050565b61107881610fc3565b82525050565b6000602082019050611093600083018461106f565b92915050565b6000806000606084860312156110b2576110b1610f60565b5b60006110c086828701610fae565b93505060206110d186828701610fae565b92505060406110e286828701610fe4565b9150509250925092565b600060ff82169050919050565b611102816110ec565b82525050565b600060208201905061111d60008301846110f9565b92915050565b60006020828403121561113957611138610f60565b5b600061114784828501610fae565b91505092915050565b61115981610f85565b82525050565b60006020820190506111746000830184611150565b92915050565b6000806040838503121561119157611190610f60565b5b600061119f85828601610fae565b92505060206111b085828601610fae565b9150509250929050565b6000602082840312156111d0576111cf610f60565b5b60006111de84828501610fe4565b91505092915050565b7f4e487b7100000000000000000000000000000000000000000000000000000000600052602260045260246000fd5b6000600282049050600182168061122e57607f821691505b602082108103611241576112406111e7565b5b50919050565b7f4e487b7100000000000000000000000000000000000000000000000000000000600052601160045260246000fd5b600061128182610fc3565b915061128c83610fc3565b925082820261129a81610fc3565b915082820484148315176112b1576112b0611247565b5b5092915050565b7f4e487b7100000000000000000000000000000000000000000000000000000000600052601260045260246000fd5b60006112f282610fc3565b91506112fd83610fc3565b92508261130d5761130c6112b8565b5b828204905092915050565b7f50657263656e746167652063616e6e6f74206578636565642031303000000000600082015250565b600061134e601c83610eb9565b915061135982611318565b602082019050919050565b6000602082019050818103600083015261137d81611341565b9050919050565b60006060820190506113996000830186611150565b6113a6602083018561106f565b6113b3604083018461106f565b949350505050565b60006113c682610fc3565b91506113d183610fc3565b92508282019050808211156113e9576113e8611247565b5b9291505056fea2646970667358221220af3afe14fbf312d44216c635839b3851145d41a6288ca95e06041788ee2d57d564736f6c63430008140033",
  "linkReferences": {},
  "deployedLinkReferences": {}
}