{
  "_format": "hh-sol-artifact-1",
  "contractName": "DOTMToken",
  "sourceName": "contracts/DOTMToken.sol",
  "abi": [
    {
      "inputs": [],
      "stateMutability": "nonpayable",
      "type": "constructor"
    },
    {
      "inputs": [
        {
          "internalType": "address",
          "name": "spender",
          "type": "address"
        },
        {
          "internalType": "uint256",
          "name": "allowance",
          "type": "uint256"
        },
        {
          "internalType": "uint256",
          "name": "needed",
          "type": "uint256"
        }
      ],
      "name": "ERC20InsufficientAllowance",
      "type": "error"
    },
    {
      "inputs": [
        {
          "internalType": "address",
          "name": "sender",
          "type": "address"
        },
        {
          "internalType": "uint256",
          "name": "balance",
          "type": "uint256"
        },
        {
          "internalType": "uint256",
          "name": "needed",
          "type": "uint256"
        }
      ],
      "name": "ERC20InsufficientBalance",
      "type": "error"
    },
    {
      "inputs": [
        {
          "internalType": "address",
          "name": "approver",
          "type": "address"
        }
      ],
      "name": "ERC20InvalidApprover",
      "type": "error"
    },
    {
      "inputs": [
        {
          "internalType": "address",
          "name": "receiver",
          "type": "address"
        }
      ],
      "name": "ERC20InvalidReceiver",
      "type": "error"
    },
    {
      "inputs": [
        {
          "internalType": "address",
          "name": "sender",
          "type": "address"
        }
      ],
      "name": "ERC20InvalidSender",
      "type": "error"
    },
    {
      "inputs": [
        {
          "internalType": "address",
          "name": "spender",
          "type": "address"
        }
      ],
      "name": "ERC20InvalidSpender",
      "type": "error"
    },
    {
      "inputs": [
        {
          "internalType": "address",
          "name": "owner",
          "type": "address"
        }
      ],
      "name": "OwnableInvalidOwner",
      "type": "error"
    },
    {
      "inputs": [
        {
          "internalType": "address",
          "name": "account",
          "type": "address"
        }
      ],
      "name": "OwnableUnauthorizedAccount",
      "type": "error"
    },
    {
      "anonymous": false,
      "inputs": [
        {
          "indexed": true,
          "internalType": "address",
          "name": "owner",
          "type": "address"
        },
        {
          "indexed": true,
          "internalType": "address",
          "name": "spender",
          "type": "address"
        },
        {
          "indexed": false,
          "internalType": "uint256",
          "name": "value",
          "type": "uint256"
        }
      ],
      "name": "Approval",
      "type": "event"
    },
    {
      "anonymous": false,
      "inputs": [
        {
          "indexed": true,
          "internalType": "address",
          "name": "previousOwner",
          "type": "address"
        },
        {
          "indexed": true,
          "internalType": "address",
          "name": "newOwner",
          "type": "address"
        }
      ],
      "name": "OwnershipTransferred",
      "type": "event"
    },
    {
      "anonymous": false,
      "inputs": [
        {
          "indexed": true,
          "internalType": "address",
          "name": "from",
          "type": "address"
        },
        {
          "indexed": true,
          "internalType": "address",
          "name": "to",
          "type": "address"
        },
        {
          "indexed": false,
          "internalType": "uint256",
          "name": "value",
          "type": "uint256"
        }
      ],
      "name": "Transfer",
      "type": "event"
    },
    {
      "inputs": [],
      "name": "MAX_SUPPLY",
      "outputs": [
        {
          "internalType": "uint256",
          "name": "",
          "type": "uint256"
        }
      ],
      "stateMutability": "view",
      "type": "function"
    },
    {
      "inputs": [],
      "name": "NEW_MEMBER_REWARD",
      "outputs": [
        {
          "internalType": "uint256",
          "name": "",
          "type": "uint256"
        }
      ],
      "stateMutability": "view",
      "type": "function"
    },
    {
      "inputs": [
        {
          "internalType": "address",
          "name": "owner",
          "type": "address"
        },
        {
          "internalType": "address",
          "name": "spender",
          "type": "address"
        }
      ],
      "name": "allowance",
      "outputs": [
        {
          "internalType": "uint256",
          "name": "",
          "type": "uint256"
        }
      ],
      "stateMutability": "view",
      "type": "function"
    },
    {
      "inputs": [
        {
          "internalType": "address",
          "name": "spender",
          "type": "address"
        },
        {
          "internalType": "uint256",
          "name": "value",
          "type": "uint256"
        }
      ],
      "name": "approve",
      "outputs": [
        {
          "internalType": "bool",
          "name": "",
          "type": "bool"
        }
      ],
      "stateMutability": "nonpayable",
      "type": "function"
    },
    {
      "inputs": [
        {
          "internalType": "address",
          "name": "newMember",
          "type": "address"
        }
      ],
      "name": "awardNewMember",
      "outputs": [],
      "stateMutability": "nonpayable",
      "type": "function"
    },
    {
      "inputs": [
        {
          "internalType": "address",
          "name": "account",
          "type": "address"
        }
      ],
      "name": "balanceOf",
      "outputs": [
        {
          "internalType": "uint256",
          "name": "",
          "type": "uint256"
        }
      ],
      "stateMutability": "view",
      "type": "function"
    },
    {
      "inputs": [],
      "name": "dataRewardPercentage",
      "outputs": [
        {
          "internalType": "uint256",
          "name": "",
          "type": "uint256"
        }
      ],
      "stateMutability": "view",
      "type": "function"
    },
    {
      "inputs": [],
      "name": "decimals",
      "outputs": [
        {
          "internalType": "uint8",
          "name": "",
          "type": "uint8"
        }
      ],
      "stateMutability": "view",
      "type": "function"
    },
    {
      "inputs": [
        {
          "internalType": "address",
          "name": "to",
          "type": "address"
        },
        {
          "internalType": "uint256",
          "name": "amount",
          "type": "uint256"
        }
      ],
      "name": "mint",
      "outputs": [],
      "stateMutability": "nonpayable",
      "type": "function"
    },
    {
      "inputs": [],
      "name": "name",
      "outputs": [
        {
          "internalType": "string",
          "name": "",
          "type": "string"
        }
      ],
      "stateMutability": "view",
      "type": "function"
    },
    {
      "inputs": [],
      "name": "owner",
      "outputs": [
        {
          "internalType": "address",
          "name": "",
          "type": "address"
        }
      ],
      "stateMutability": "view",
      "type": "function"
    },
    {
      "inputs": [],
      "name": "remainingMintableTokens",
      "outputs": [
        {
          "internalType": "uint256",
          "name": "",
          "type": "uint256"
        }
      ],
      "stateMutability": "view",
      "type": "function"
    },
    {
      "inputs": [],
      "name": "renounceOwnership",
      "outputs": [],
      "stateMutability": "nonpayable",
      "type": "function"
    },
    {
      "inputs": [
        {
          "internalType": "address",
          "name": "user",
          "type": "address"
        },
        {
          "internalType": "uint256",
          "name": "purchaseAmountCents",
          "type": "uint256"
        }
      ],
      "name": "rewardDataPurchase",
      "outputs": [],
      "stateMutability": "nonpayable",
      "type": "function"
    },
    {
      "inputs": [
        {
          "internalType": "uint256",
          "name": "newPercentageBasisPoints",
          "type": "uint256"
        }
      ],
      "name": "setDataRewardPercentage",
      "outputs": [],
      "stateMutability": "nonpayable",
      "type": "function"
    },
    {
      "inputs": [],
      "name": "symbol",
      "outputs": [
        {
          "internalType": "string",
          "name": "",
          "type": "string"
        }
      ],
      "stateMutability": "view",
      "type": "function"
    },
    {
      "inputs": [],
      "name": "totalSupply",
      "outputs": [
        {
          "internalType": "uint256",
          "name": "",
          "type": "uint256"
        }
      ],
      "stateMutability": "view",
      "type": "function"
    },
    {
      "inputs": [
        {
          "internalType": "address",
          "name": "to",
          "type": "address"
        },
        {
          "internalType": "uint256",
          "name": "value",
          "type": "uint256"
        }
      ],
      "name": "transfer",
      "outputs": [
        {
          "internalType": "bool",
          "name": "",
          "type": "bool"
        }
      ],
      "stateMutability": "nonpayable",
      "type": "function"
    },
    {
      "inputs": [
        {
          "internalType": "address",
          "name": "from",
          "type": "address"
        },
        {
          "internalType": "address",
          "name": "to",
          "type": "address"
        },
        {
          "internalType": "uint256",
          "name": "value",
          "type": "uint256"
        }
      ],
      "name": "transferFrom",
      "outputs": [
        {
          "internalType": "bool",
          "name": "",
          "type": "bool"
        }
      ],
      "stateMutability": "nonpayable",
      "type": "function"
    },
    {
      "inputs": [
        {
          "internalType": "address",
          "name": "newOwner",
          "type": "address"
        }
      ],
      "name": "transferOwnership",
      "outputs": [],
      "stateMutability": "nonpayable",
      "type": "function"
    }
  ],
  "bytecode": "0x60806040526104096006553480156200001757600080fd5b50336040518060400160405280600a81526020017f444f544d20546f6b656e000000000000000000000000000000000000000000008152506040518060400160405280600481526020017f444f544d00000000000000000000000000000000000000000000000000000000815250816003908162000096919062000478565b508060049081620000a8919062000478565b505050600073ffffffffffffffffffffffffffffffffffffffff168173ffffffffffffffffffffffffffffffffffffffff1603620001205760006040517f1e4fbdf7000000000000000000000000000000000000000000000000000000008152600401620001179190620005a4565b60405180910390fd5b62000131816200013860201b60201c565b50620005c1565b6000600560009054906101000a900473ffffffffffffffffffffffffffffffffffffffff16905081600560006101000a81548173ffffffffffffffffffffffffffffffffffffffff021916908373ffffffffffffffffffffffffffffffffffffffff1602179055508173ffffffffffffffffffffffffffffffffffffffff168173ffffffffffffffffffffffffffffffffffffffff167f8be0079c531659141344cd1fd0a4f28419497f9722a3daafe3b4186f6b6457e060405160405180910390a35050565b600081519050919050565b7f4e487b7100000000000000000000000000000000000000000000000000000000600052604160045260246000fd5b7f4e487b7100000000000000000000000000000000000000000000000000000000600052602260045260246000fd5b600060028204905060018216806200028057607f821691505b60208210810362000296576200029562000238565b5b50919050565b60008190508160005260206000209050919050565b60006020601f8301049050919050565b600082821b905092915050565b600060088302620003007fffffffffffffffffffffffffffffffffffffffffffffffffffffffffffffffff82620002c1565b6200030c8683620002c1565b95508019841693508086168417925050509392505050565b6000819050919050565b6000819050919050565b600062000359620003536200034d8462000324565b6200032e565b62000324565b9050919050565b6000819050919050565b620003758362000338565b6200038d620003848262000360565b848454620002ce565b825550505050565b600090565b620003a462000395565b620003b18184846200036a565b505050565b5b81811015620003d957620003cd6000826200039a565b600181019050620003b7565b5050565b601f8211156200042857620003f2816200029c565b620003fd84620002b1565b810160208510156200040d578190505b620004256200041c85620002b1565b830182620003b6565b50505b505050565b600082821c905092915050565b60006200044d600019846008026200042d565b1980831691505092915050565b60006200046883836200043a565b9150826002028217905092915050565b6200048382620001fe565b67ffffffffffffffff8111156200049f576200049e62000209565b5b620004ab825462000267565b620004b8828285620003dd565b600060209050601f831160018114620004f05760008415620004db578287015190505b620004e785826200045a565b86555062000557565b601f19841662000500866200029c565b60005b828110156200052a5784890151825560018201915060208501945060208101905062000503565b868310156200054a578489015162000546601f8916826200043a565b8355505b6001600288020188555050505b505050505050565b600073ffffffffffffffffffffffffffffffffffffffff82169050919050565b60006200058c826200055f565b9050919050565b6200059e816200057f565b82525050565b6000602082019050620005bb600083018462000593565b92915050565b6117f980620005d16000396000f3fe608060405234801561001057600080fd5b506004361061012c5760003560e01c806370a08231116100ad578063dd62ed3e11610071578063dd62ed3e14610321578063e2e5c15c14610351578063f2a6bf1d1461036f578063f2c3cdff1461038d578063f2fde38b146103a95761012c565b806370a082311461027b578063715018a6146102ab5780638da5cb5b146102b557806395d89b41146102d3578063a9059cbb146102f15761012c565b806328499c8e116100f457806328499c8e146101e9578063313ce5671461020757806332cb6b0c1461022557806340c10f191461024357806352d8d94d1461025f5761012c565b806306fdde0314610131578063095ea7b31461014f5780630c8d32fa1461017f57806318160ddd1461019b57806323b872dd146101b9575b600080fd5b6101396103c5565b6040516101469190611174565b60405180910390f35b6101696004803603810190610164919061122f565b610457565b604051610176919061128a565b60405180910390f35b610199600480360381019061019491906112a5565b61047a565b005b6101a36104ff565b6040516101b091906112e1565b60405180910390f35b6101d360048036038101906101ce91906112fc565b610509565b6040516101e0919061128a565b60405180910390f35b6101f1610538565b6040516101fe91906112e1565b60405180910390f35b61020f610544565b60405161021c919061136b565b60405180910390f35b61022d61054d565b60405161023a91906112e1565b60405180910390f35b61025d6004803603810190610258919061122f565b61055c565b005b6102796004803603810190610274919061122f565b6105d2565b005b610295600480360381019061029091906112a5565b6106ac565b6040516102a291906112e1565b60405180910390f35b6102b36106f4565b005b6102bd610708565b6040516102ca9190611395565b60405180910390f35b6102db610732565b6040516102e89190611174565b60405180910390f35b61030b6004803603810190610306919061122f565b6107c4565b604051610318919061128a565b60405180910390f35b61033b600480360381019061033691906113b0565b6107e7565b60405161034891906112e1565b60405180910390f35b61035961086e565b60405161036691906112e1565b60405180910390f35b610377610893565b60405161038491906112e1565b60405180910390f35b6103a760048036038101906103a291906113f0565b610899565b005b6103c360048036038101906103be91906112a5565b6108f0565b005b6060600380546103d49061144c565b80601f01602080910402602001604051908101604052809291908181526020018280546104009061144c565b801561044d5780601f106104225761010080835404028352916020019161044d565b820191906000526020600020905b81548152906001019060200180831161043057829003601f168201915b5050505050905090565b600080610462610976565b905061046f81858561097e565b600191505092915050565b610482610990565b6a088c2b1ab8b35b9d340000678f5b8844f1c9000061049f6104ff565b6104a991906114ac565b11156104ea576040517f08c379a00000000000000000000000000000000000000000000000000000000081526004016104e190611552565b60405180910390fd5b6104fc81678f5b8844f1c90000610a17565b50565b6000600254905090565b600080610514610976565b9050610521858285610a99565b61052c858585610b2e565b60019150509392505050565b678f5b8844f1c9000081565b60006012905090565b6a088c2b1ab8b35b9d34000081565b610564610990565b6a088c2b1ab8b35b9d340000816105796104ff565b61058391906114ac565b11156105c4576040517f08c379a00000000000000000000000000000000000000000000000000000000081526004016105bb906115be565b60405180910390fd5b6105ce8282610a17565b5050565b6105da610990565b6a088c2b1ab8b35b9d3400006105ee6104ff565b1061062e576040517f08c379a00000000000000000000000000000000000000000000000000000000081526004016106259061162a565b60405180910390fd5b600061271060065483610641919061164a565b61064b91906116bb565b90506a088c2b1ab8b35b9d340000816106626104ff565b61066c91906114ac565b11156106935761067a6104ff565b6a088c2b1ab8b35b9d34000061069091906116ec565b90505b60008111156106a7576106a68382610a17565b5b505050565b60008060008373ffffffffffffffffffffffffffffffffffffffff1673ffffffffffffffffffffffffffffffffffffffff168152602001908152602001600020549050919050565b6106fc610990565b6107066000610c22565b565b6000600560009054906101000a900473ffffffffffffffffffffffffffffffffffffffff16905090565b6060600480546107419061144c565b80601f016020809104026020016040519081016040528092919081815260200182805461076d9061144c565b80156107ba5780601f1061078f576101008083540402835291602001916107ba565b820191906000526020600020905b81548152906001019060200180831161079d57829003601f168201915b5050505050905090565b6000806107cf610976565b90506107dc818585610b2e565b600191505092915050565b6000600160008473ffffffffffffffffffffffffffffffffffffffff1673ffffffffffffffffffffffffffffffffffffffff16815260200190815260200160002060008373ffffffffffffffffffffffffffffffffffffffff1673ffffffffffffffffffffffffffffffffffffffff16815260200190815260200160002054905092915050565b60006108786104ff565b6a088c2b1ab8b35b9d34000061088e91906116ec565b905090565b60065481565b6108a1610990565b6127108111156108e6576040517f08c379a00000000000000000000000000000000000000000000000000000000081526004016108dd9061176c565b60405180910390fd5b8060068190555050565b6108f8610990565b600073ffffffffffffffffffffffffffffffffffffffff168173ffffffffffffffffffffffffffffffffffffffff160361096a5760006040517f1e4fbdf70000000000000000000000000000000000000000000000000000000081526004016109619190611395565b60405180910390fd5b61097381610c22565b50565b600033905090565b61098b8383836001610ce8565b505050565b610998610976565b73ffffffffffffffffffffffffffffffffffffffff166109b6610708565b73ffffffffffffffffffffffffffffffffffffffff1614610a15576109d9610976565b6040517f118cdaa7000000000000000000000000000000000000000000000000000000008152600401610a0c9190611395565b60405180910390fd5b565b600073ffffffffffffffffffffffffffffffffffffffff168273ffffffffffffffffffffffffffffffffffffffff1603610a895760006040517fec442f05000000000000000000000000000000000000000000000000000000008152600401610a809190611395565b60405180910390fd5b610a9560008383610ebf565b5050565b6000610aa584846107e7565b90507fffffffffffffffffffffffffffffffffffffffffffffffffffffffffffffffff811015610b285781811015610b18578281836040517ffb8f41b2000000000000000000000000000000000000000000000000000000008152600401610b0f9392919061178c565b60405180910390fd5b610b2784848484036000610ce8565b5b50505050565b600073ffffffffffffffffffffffffffffffffffffffff168373ffffffffffffffffffffffffffffffffffffffff1603610ba05760006040517f96c6fd1e000000000000000000000000000000000000000000000000000000008152600401610b979190611395565b60405180910390fd5b600073ffffffffffffffffffffffffffffffffffffffff168273ffffffffffffffffffffffffffffffffffffffff1603610c125760006040517fec442f05000000000000000000000000000000000000000000000000000000008152600401610c099190611395565b60405180910390fd5b610c1d838383610ebf565b505050565b6000600560009054906101000a900473ffffffffffffffffffffffffffffffffffffffff16905081600560006101000a81548173ffffffffffffffffffffffffffffffffffffffff021916908373ffffffffffffffffffffffffffffffffffffffff1602179055508173ffffffffffffffffffffffffffffffffffffffff168173ffffffffffffffffffffffffffffffffffffffff167f8be0079c531659141344cd1fd0a4f28419497f9722a3daafe3b4186f6b6457e060405160405180910390a35050565b600073ffffffffffffffffffffffffffffffffffffffff168473ffffffffffffffffffffffffffffffffffffffff1603610d5a5760006040517fe602df05000000000000000000000000000000000000000000000000000000008152600401610d519190611395565b60405180910390fd5b600073ffffffffffffffffffffffffffffffffffffffff168373ffffffffffffffffffffffffffffffffffffffff1603610dcc5760006040517f94280d62000000000000000000000000000000000000000000000000000000008152600401610dc39190611395565b60405180910390fd5b81600160008673ffffffffffffffffffffffffffffffffffffffff1673ffffffffffffffffffffffffffffffffffffffff16815260200190815260200160002060008573ffffffffffffffffffffffffffffffffffffffff1673ffffffffffffffffffffffffffffffffffffffff168152602001908152602001600020819055508015610eb9578273ffffffffffffffffffffffffffffffffffffffff168473ffffffffffffffffffffffffffffffffffffffff167f8c5be1e5ebec7d5bd14f71427d1e84f3dd0314c0f7b2291e5b200ac8c7c3b92584604051610eb091906112e1565b60405180910390a35b50505050565b600073ffffffffffffffffffffffffffffffffffffffff168373ffffffffffffffffffffffffffffffffffffffff1603610f11578060026000828254610f0591906114ac565b92505081905550610fe4565b60008060008573ffffffffffffffffffffffffffffffffffffffff1673ffffffffffffffffffffffffffffffffffffffff16815260200190815260200160002054905081811015610f9d578381836040517fe450d38c000000000000000000000000000000000000000000000000000000008152600401610f949392919061178c565b60405180910390fd5b8181036000808673ffffffffffffffffffffffffffffffffffffffff1673ffffffffffffffffffffffffffffffffffffffff16815260200190815260200160002081905550505b600073ffffffffffffffffffffffffffffffffffffffff168273ffffffffffffffffffffffffffffffffffffffff160361102d578060026000828254039250508190555061107a565b806000808473ffffffffffffffffffffffffffffffffffffffff1673ffffffffffffffffffffffffffffffffffffffff168152602001908152602001600020600082825401925050819055505b8173ffffffffffffffffffffffffffffffffffffffff168373ffffffffffffffffffffffffffffffffffffffff167fddf252ad1be2c89b69c2b068fc378daa952ba7f163c4a11628f55a4df523b3ef836040516110d791906112e1565b60405180910390a3505050565b600081519050919050565b600082825260208201905092915050565b60005b8381101561111e578082015181840152602081019050611103565b60008484015250505050565b6000601f19601f8301169050919050565b6000611146826110e4565b61115081856110ef565b9350611160818560208601611100565b6111698161112a565b840191505092915050565b6000602082019050818103600083015261118e818461113b565b905092915050565b600080fd5b600073ffffffffffffffffffffffffffffffffffffffff82169050919050565b60006111c68261119b565b9050919050565b6111d6816111bb565b81146111e157600080fd5b50565b6000813590506111f3816111cd565b92915050565b6000819050919050565b61120c816111f9565b811461121757600080fd5b50565b60008135905061122981611203565b92915050565b6000806040838503121561124657611245611196565b5b6000611254858286016111e4565b92505060206112658582860161121a565b9150509250929050565b60008115159050919050565b6112848161126f565b82525050565b600060208201905061129f600083018461127b565b92915050565b6000602082840312156112bb576112ba611196565b5b60006112c9848285016111e4565b91505092915050565b6112db816111f9565b82525050565b60006020820190506112f660008301846112d2565b92915050565b60008060006060848603121561131557611314611196565b5b6000611323868287016111e4565b9350506020611334868287016111e4565b92505060406113458682870161121a565b9150509250925092565b600060ff82169050919050565b6113658161134f565b82525050565b6000602082019050611380600083018461135c565b92915050565b61138f816111bb565b82525050565b60006020820190506113aa6000830184611386565b92915050565b600080604083850312156113c7576113c6611196565b5b60006113d5858286016111e4565b92505060206113e6858286016111e4565b9150509250929050565b60006020828403121561140657611405611196565b5b60006114148482850161121a565b91505092915050565b7f4e487b7100000000000000000000000000000000000000000000000000000000600052602260045260246000fd5b6000600282049050600182168061146457607f821691505b6020821081036114775761147661141d565b5b50919050565b7f4e487b7100000000000000000000000000000000000000000000000000000000600052601160045260246000fd5b60006114b7826111f9565b91506114c2836111f9565b92508282019050808211156114da576114d961147d565b5b92915050565b7f4e6f7420656e6f75676820746f6b656e73206c65667420666f72206e6577206d60008201527f656d626572000000000000000000000000000000000000000000000000000000602082015250565b600061153c6025836110ef565b9150611547826114e0565b604082019050919050565b6000602082019050818103600083015261156b8161152f565b9050919050565b7f4d696e74696e6720776f756c6420657863656564206d617820737570706c7900600082015250565b60006115a8601f836110ef565b91506115b382611572565b602082019050919050565b600060208201905081810360008301526115d78161159b565b9050919050565b7f4d617820737570706c7920726561636865640000000000000000000000000000600082015250565b60006116146012836110ef565b915061161f826115de565b602082019050919050565b6000602082019050818103600083015261164381611607565b9050919050565b6000611655826111f9565b9150611660836111f9565b925082820261166e816111f9565b915082820484148315176116855761168461147d565b5b5092915050565b7f4e487b7100000000000000000000000000000000000000000000000000000000600052601260045260246000fd5b60006116c6826111f9565b91506116d1836111f9565b9250826116e1576116e061168c565b5b828204905092915050565b60006116f7826111f9565b9150611702836111f9565b925082820390508181111561171a5761171961147d565b5b92915050565b7f50657263656e746167652063616e6e6f74206578636565642031303025000000600082015250565b6000611756601d836110ef565b915061176182611720565b602082019050919050565b6000602082019050818103600083015261178581611749565b9050919050565b60006060820190506117a16000830186611386565b6117ae60208301856112d2565b6117bb60408301846112d2565b94935050505056fea264697066735822122074ffc6fa9e6d54ba14a33c1490c60de658dfb100c2ac9fd5712192ec27e7ded564736f6c63430008140033",
  "linkReferences": {},
  "deployedLinkReferences": {}
}