{
  "_format": "hh-sol-artifact-1",
  "contractName": "DOTMToken",
  "sourceName": "contracts/DOTMToken.sol",
  "abi": [
    {
      "inputs": [],
      "stateMutability": "nonpayable",
      "type": "constructor"
    },
    {
      "inputs": [
        {
          "internalType": "address",
          "name": "spender",
          "type": "address"
        },
        {
          "internalType": "uint256",
          "name": "allowance",
          "type": "uint256"
        },
        {
          "internalType": "uint256",
          "name": "needed",
          "type": "uint256"
        }
      ],
      "name": "ERC20InsufficientAllowance",
      "type": "error"
    },
    {
      "inputs": [
        {
          "internalType": "address",
          "name": "sender",
          "type": "address"
        },
        {
          "internalType": "uint256",
          "name": "balance",
          "type": "uint256"
        },
        {
          "internalType": "uint256",
          "name": "needed",
          "type": "uint256"
        }
      ],
      "name": "ERC20InsufficientBalance",
      "type": "error"
    },
    {
      "inputs": [
        {
          "internalType": "address",
          "name": "approver",
          "type": "address"
        }
      ],
      "name": "ERC20InvalidApprover",
      "type": "error"
    },
    {
      "inputs": [
        {
          "internalType": "address",
          "name": "receiver",
          "type": "address"
        }
      ],
      "name": "ERC20InvalidReceiver",
      "type": "error"
    },
    {
      "inputs": [
        {
          "internalType": "address",
          "name": "sender",
          "type": "address"
        }
      ],
      "name": "ERC20InvalidSender",
      "type": "error"
    },
    {
      "inputs": [
        {
          "internalType": "address",
          "name": "spender",
          "type": "address"
        }
      ],
      "name": "ERC20InvalidSpender",
      "type": "error"
    },
    {
      "inputs": [
        {
          "internalType": "address",
          "name": "owner",
          "type": "address"
        }
      ],
      "name": "OwnableInvalidOwner",
      "type": "error"
    },
    {
      "inputs": [
        {
          "internalType": "address",
          "name": "account",
          "type": "address"
        }
      ],
      "name": "OwnableUnauthorizedAccount",
      "type": "error"
    },
    {
      "anonymous": false,
      "inputs": [
        {
          "indexed": true,
          "internalType": "address",
          "name": "owner",
          "type": "address"
        },
        {
          "indexed": true,
          "internalType": "address",
          "name": "spender",
          "type": "address"
        },
        {
          "indexed": false,
          "internalType": "uint256",
          "name": "value",
          "type": "uint256"
        }
      ],
      "name": "Approval",
      "type": "event"
    },
    {
      "anonymous": false,
      "inputs": [
        {
          "indexed": true,
          "internalType": "address",
          "name": "previousOwner",
          "type": "address"
        },
        {
          "indexed": true,
          "internalType": "address",
          "name": "newOwner",
          "type": "address"
        }
      ],
      "name": "OwnershipTransferred",
      "type": "event"
    },
    {
      "anonymous": false,
      "inputs": [
        {
          "indexed": true,
          "internalType": "address",
          "name": "from",
          "type": "address"
        },
        {
          "indexed": true,
          "internalType": "address",
          "name": "to",
          "type": "address"
        },
        {
          "indexed": false,
          "internalType": "uint256",
          "name": "value",
          "type": "uint256"
        }
      ],
      "name": "Transfer",
      "type": "event"
    },
    {
      "inputs": [],
      "name": "INITIAL_SUPPLY",
      "outputs": [
        {
          "internalType": "uint256",
          "name": "",
          "type": "uint256"
        }
      ],
      "stateMutability": "view",
      "type": "function"
    },
    {
      "inputs": [
        {
          "internalType": "address",
          "name": "owner",
          "type": "address"
        },
        {
          "internalType": "address",
          "name": "spender",
          "type": "address"
        }
      ],
      "name": "allowance",
      "outputs": [
        {
          "internalType": "uint256",
          "name": "",
          "type": "uint256"
        }
      ],
      "stateMutability": "view",
      "type": "function"
    },
    {
      "inputs": [
        {
          "internalType": "address",
          "name": "spender",
          "type": "address"
        },
        {
          "internalType": "uint256",
          "name": "value",
          "type": "uint256"
        }
      ],
      "name": "approve",
      "outputs": [
        {
          "internalType": "bool",
          "name": "",
          "type": "bool"
        }
      ],
      "stateMutability": "nonpayable",
      "type": "function"
    },
    {
      "inputs": [
        {
          "internalType": "address",
          "name": "newMember",
          "type": "address"
        }
      ],
      "name": "awardNewMember",
      "outputs": [],
      "stateMutability": "nonpayable",
      "type": "function"
    },
    {
      "inputs": [
        {
          "internalType": "address",
          "name": "account",
          "type": "address"
        }
      ],
      "name": "balanceOf",
      "outputs": [
        {
          "internalType": "uint256",
          "name": "",
          "type": "uint256"
        }
      ],
      "stateMutability": "view",
      "type": "function"
    },
    {
      "inputs": [],
      "name": "dataRewardPercentage",
      "outputs": [
        {
          "internalType": "uint256",
          "name": "",
          "type": "uint256"
        }
      ],
      "stateMutability": "view",
      "type": "function"
    },
    {
      "inputs": [],
      "name": "decimals",
      "outputs": [
        {
          "internalType": "uint8",
          "name": "",
          "type": "uint8"
        }
      ],
      "stateMutability": "view",
      "type": "function"
    },
    {
      "inputs": [
        {
          "internalType": "address",
          "name": "to",
          "type": "address"
        },
        {
          "internalType": "uint256",
          "name": "amount",
          "type": "uint256"
        }
      ],
      "name": "mint",
      "outputs": [],
      "stateMutability": "nonpayable",
      "type": "function"
    },
    {
      "inputs": [],
      "name": "name",
      "outputs": [
        {
          "internalType": "string",
          "name": "",
          "type": "string"
        }
      ],
      "stateMutability": "view",
      "type": "function"
    },
    {
      "inputs": [],
      "name": "owner",
      "outputs": [
        {
          "internalType": "address",
          "name": "",
          "type": "address"
        }
      ],
      "stateMutability": "view",
      "type": "function"
    },
    {
      "inputs": [],
      "name": "renounceOwnership",
      "outputs": [],
      "stateMutability": "nonpayable",
      "type": "function"
    },
    {
      "inputs": [
        {
          "internalType": "address",
          "name": "user",
          "type": "address"
        },
        {
          "internalType": "uint256",
          "name": "purchaseAmount",
          "type": "uint256"
        }
      ],
      "name": "rewardDataPurchase",
      "outputs": [],
      "stateMutability": "nonpayable",
      "type": "function"
    },
    {
      "inputs": [
        {
          "internalType": "uint256",
          "name": "newPercentage",
          "type": "uint256"
        }
      ],
      "name": "setDataRewardPercentage",
      "outputs": [],
      "stateMutability": "nonpayable",
      "type": "function"
    },
    {
      "inputs": [],
      "name": "symbol",
      "outputs": [
        {
          "internalType": "string",
          "name": "",
          "type": "string"
        }
      ],
      "stateMutability": "view",
      "type": "function"
    },
    {
      "inputs": [],
      "name": "totalSupply",
      "outputs": [
        {
          "internalType": "uint256",
          "name": "",
          "type": "uint256"
        }
      ],
      "stateMutability": "view",
      "type": "function"
    },
    {
      "inputs": [
        {
          "internalType": "address",
          "name": "to",
          "type": "address"
        },
        {
          "internalType": "uint256",
          "name": "value",
          "type": "uint256"
        }
      ],
      "name": "transfer",
      "outputs": [
        {
          "internalType": "bool",
          "name": "",
          "type": "bool"
        }
      ],
      "stateMutability": "nonpayable",
      "type": "function"
    },
    {
      "inputs": [
        {
          "internalType": "address",
          "name": "from",
          "type": "address"
        },
        {
          "internalType": "address",
          "name": "to",
          "type": "address"
        },
        {
          "internalType": "uint256",
          "name": "value",
          "type": "uint256"
        }
      ],
      "name": "transferFrom",
      "outputs": [
        {
          "internalType": "bool",
          "name": "",
          "type": "bool"
        }
      ],
      "stateMutability": "nonpayable",
      "type": "function"
    },
    {
      "inputs": [
        {
          "internalType": "address",
          "name": "newOwner",
          "type": "address"
        }
      ],
      "name": "transferOwnership",
      "outputs": [],
      "stateMutability": "nonpayable",
      "type": "function"
    }
  ],
  "bytecode": "0x608060405260016006553480156200001657600080fd5b50336040518060400160405280600a81526020017f444f544d20546f6b656e000000000000000000000000000000000000000000008152506040518060400160405280600481526020017f444f544d00000000000000000000000000000000000000000000000000000000815250816003908162000095919062000750565b508060049081620000a7919062000750565b505050600073ffffffffffffffffffffffffffffffffffffffff168173ffffffffffffffffffffffffffffffffffffffff16036200011f5760006040517f1e4fbdf70000000000000000000000000000000000000000000000000000000081526004016200011691906200087c565b60405180910390fd5b62000130816200015360201b60201c565b506200014d3369152d02c7e14af68000006200021960201b60201c565b6200096e565b6000600560009054906101000a900473ffffffffffffffffffffffffffffffffffffffff16905081600560006101000a81548173ffffffffffffffffffffffffffffffffffffffff021916908373ffffffffffffffffffffffffffffffffffffffff1602179055508173ffffffffffffffffffffffffffffffffffffffff168173ffffffffffffffffffffffffffffffffffffffff167f8be0079c531659141344cd1fd0a4f28419497f9722a3daafe3b4186f6b6457e060405160405180910390a35050565b600073ffffffffffffffffffffffffffffffffffffffff168273ffffffffffffffffffffffffffffffffffffffff16036200028e5760006040517fec442f050000000000000000000000000000000000000000000000000000000081526004016200028591906200087c565b60405180910390fd5b620002a260008383620002a660201b60201c565b5050565b600073ffffffffffffffffffffffffffffffffffffffff168373ffffffffffffffffffffffffffffffffffffffff1603620002fc578060026000828254620002ef9190620008c8565b92505081905550620003d2565b60008060008573ffffffffffffffffffffffffffffffffffffffff1673ffffffffffffffffffffffffffffffffffffffff168152602001908152602001600020549050818110156200038b578381836040517fe450d38c000000000000000000000000000000000000000000000000000000008152600401620003829392919062000914565b60405180910390fd5b8181036000808673ffffffffffffffffffffffffffffffffffffffff1673ffffffffffffffffffffffffffffffffffffffff16815260200190815260200160002081905550505b600073ffffffffffffffffffffffffffffffffffffffff168273ffffffffffffffffffffffffffffffffffffffff16036200041d57806002600082825403925050819055506200046a565b806000808473ffffffffffffffffffffffffffffffffffffffff1673ffffffffffffffffffffffffffffffffffffffff168152602001908152602001600020600082825401925050819055505b8173ffffffffffffffffffffffffffffffffffffffff168373ffffffffffffffffffffffffffffffffffffffff167fddf252ad1be2c89b69c2b068fc378daa952ba7f163c4a11628f55a4df523b3ef83604051620004c9919062000951565b60405180910390a3505050565b600081519050919050565b7f4e487b7100000000000000000000000000000000000000000000000000000000600052604160045260246000fd5b7f4e487b7100000000000000000000000000000000000000000000000000000000600052602260045260246000fd5b600060028204905060018216806200055857607f821691505b6020821081036200056e576200056d62000510565b5b50919050565b60008190508160005260206000209050919050565b60006020601f8301049050919050565b600082821b905092915050565b600060088302620005d87fffffffffffffffffffffffffffffffffffffffffffffffffffffffffffffffff8262000599565b620005e4868362000599565b95508019841693508086168417925050509392505050565b6000819050919050565b6000819050919050565b6000620006316200062b6200062584620005fc565b62000606565b620005fc565b9050919050565b6000819050919050565b6200064d8362000610565b620006656200065c8262000638565b848454620005a6565b825550505050565b600090565b6200067c6200066d565b6200068981848462000642565b505050565b5b81811015620006b157620006a560008262000672565b6001810190506200068f565b5050565b601f8211156200070057620006ca8162000574565b620006d58462000589565b81016020851015620006e5578190505b620006fd620006f48562000589565b8301826200068e565b50505b505050565b600082821c905092915050565b6000620007256000198460080262000705565b1980831691505092915050565b600062000740838362000712565b9150826002028217905092915050565b6200075b82620004d6565b67ffffffffffffffff811115620007775762000776620004e1565b5b6200078382546200053f565b62000790828285620006b5565b600060209050601f831160018114620007c85760008415620007b3578287015190505b620007bf858262000732565b8655506200082f565b601f198416620007d88662000574565b60005b828110156200080257848901518255600182019150602085019450602081019050620007db565b868310156200082257848901516200081e601f89168262000712565b8355505b6001600288020188555050505b505050505050565b600073ffffffffffffffffffffffffffffffffffffffff82169050919050565b6000620008648262000837565b9050919050565b620008768162000857565b82525050565b60006020820190506200089360008301846200086b565b92915050565b7f4e487b7100000000000000000000000000000000000000000000000000000000600052601160045260246000fd5b6000620008d582620005fc565b9150620008e283620005fc565b9250828201905080821115620008fd57620008fc62000899565b5b92915050565b6200090e81620005fc565b82525050565b60006060820190506200092b60008301866200086b565b6200093a602083018562000903565b62000949604083018462000903565b949350505050565b600060208201905062000968600083018462000903565b92915050565b61146f806200097e6000396000f3fe608060405234801561001057600080fd5b50600436106101165760003560e01c806370a08231116100a2578063a9059cbb11610071578063a9059cbb146102bd578063dd62ed3e146102ed578063f2a6bf1d1461031d578063f2c3cdff1461033b578063f2fde38b1461035757610116565b806370a0823114610247578063715018a6146102775780638da5cb5b1461028157806395d89b411461029f57610116565b806323b872dd116100e957806323b872dd146101a35780632ff2e9dc146101d3578063313ce567146101f157806340c10f191461020f57806352d8d94d1461022b57610116565b806306fdde031461011b578063095ea7b3146101395780630c8d32fa1461016957806318160ddd14610185575b600080fd5b610123610373565b6040516101309190610f88565b60405180910390f35b610153600480360381019061014e9190611043565b610405565b604051610160919061109e565b60405180910390f35b610183600480360381019061017e91906110b9565b610428565b005b61018d61044b565b60405161019a91906110f5565b60405180910390f35b6101bd60048036038101906101b89190611110565b610455565b6040516101ca919061109e565b60405180910390f35b6101db610484565b6040516101e891906110f5565b60405180910390f35b6101f9610492565b604051610206919061117f565b60405180910390f35b61022960048036038101906102249190611043565b61049b565b005b61024560048036038101906102409190611043565b6104b1565b005b610261600480360381019061025c91906110b9565b6104e6565b60405161026e91906110f5565b60405180910390f35b61027f61052e565b005b610289610542565b60405161029691906111a9565b60405180910390f35b6102a761056c565b6040516102b49190610f88565b60405180910390f35b6102d760048036038101906102d29190611043565b6105fe565b6040516102e4919061109e565b60405180910390f35b610307600480360381019061030291906111c4565b610621565b60405161031491906110f5565b60405180910390f35b6103256106a8565b60405161033291906110f5565b60405180910390f35b61035560048036038101906103509190611204565b6106ae565b005b610371600480360381019061036c91906110b9565b610704565b005b60606003805461038290611260565b80601f01602080910402602001604051908101604052809291908181526020018280546103ae90611260565b80156103fb5780601f106103d0576101008083540402835291602001916103fb565b820191906000526020600020905b8154815290600101906020018083116103de57829003601f168201915b5050505050905090565b60008061041061078a565b905061041d818585610792565b600191505092915050565b6104306107a4565b6000670de0b6b3a76400009050610447828261082b565b5050565b6000600254905090565b60008061046061078a565b905061046d8582856108ad565b610478858585610942565b60019150509392505050565b69152d02c7e14af680000081565b60006012905090565b6104a36107a4565b6104ad828261082b565b5050565b6104b96107a4565b60006064600654836104cb91906112c0565b6104d59190611331565b90506104e1838261082b565b505050565b60008060008373ffffffffffffffffffffffffffffffffffffffff1673ffffffffffffffffffffffffffffffffffffffff168152602001908152602001600020549050919050565b6105366107a4565b6105406000610a36565b565b6000600560009054906101000a900473ffffffffffffffffffffffffffffffffffffffff16905090565b60606004805461057b90611260565b80601f01602080910402602001604051908101604052809291908181526020018280546105a790611260565b80156105f45780601f106105c9576101008083540402835291602001916105f4565b820191906000526020600020905b8154815290600101906020018083116105d757829003601f168201915b5050505050905090565b60008061060961078a565b9050610616818585610942565b600191505092915050565b6000600160008473ffffffffffffffffffffffffffffffffffffffff1673ffffffffffffffffffffffffffffffffffffffff16815260200190815260200160002060008373ffffffffffffffffffffffffffffffffffffffff1673ffffffffffffffffffffffffffffffffffffffff16815260200190815260200160002054905092915050565b60065481565b6106b66107a4565b60648111156106fa576040517f08c379a00000000000000000000000000000000000000000000000000000000081526004016106f1906113ae565b60405180910390fd5b8060068190555050565b61070c6107a4565b600073ffffffffffffffffffffffffffffffffffffffff168173ffffffffffffffffffffffffffffffffffffffff160361077e5760006040517f1e4fbdf700000000000000000000000000000000000000000000000000000000815260040161077591906111a9565b60405180910390fd5b61078781610a36565b50565b600033905090565b61079f8383836001610afc565b505050565b6107ac61078a565b73ffffffffffffffffffffffffffffffffffffffff166107ca610542565b73ffffffffffffffffffffffffffffffffffffffff1614610829576107ed61078a565b6040517f118cdaa700000000000000000000000000000000000000000000000000000000815260040161082091906111a9565b60405180910390fd5b565b600073ffffffffffffffffffffffffffffffffffffffff168273ffffffffffffffffffffffffffffffffffffffff160361089d5760006040517fec442f0500000000000000000000000000000000000000000000000000000000815260040161089491906111a9565b60405180910390fd5b6108a960008383610cd3565b5050565b60006108b98484610621565b90507fffffffffffffffffffffffffffffffffffffffffffffffffffffffffffffffff81101561093c578181101561092c578281836040517ffb8f41b2000000000000000000000000000000000000000000000000000000008152600401610923939291906113ce565b60405180910390fd5b61093b84848484036000610afc565b5b50505050565b600073ffffffffffffffffffffffffffffffffffffffff168373ffffffffffffffffffffffffffffffffffffffff16036109b45760006040517f96c6fd1e0000000000000000000000000000000000000000000000000000000081526004016109ab91906111a9565b60405180910390fd5b600073ffffffffffffffffffffffffffffffffffffffff168273ffffffffffffffffffffffffffffffffffffffff1603610a265760006040517fec442f05000000000000000000000000000000000000000000000000000000008152600401610a1d91906111a9565b60405180910390fd5b610a31838383610cd3565b505050565b6000600560009054906101000a900473ffffffffffffffffffffffffffffffffffffffff16905081600560006101000a81548173ffffffffffffffffffffffffffffffffffffffff021916908373ffffffffffffffffffffffffffffffffffffffff1602179055508173ffffffffffffffffffffffffffffffffffffffff168173ffffffffffffffffffffffffffffffffffffffff167f8be0079c531659141344cd1fd0a4f28419497f9722a3daafe3b4186f6b6457e060405160405180910390a35050565b600073ffffffffffffffffffffffffffffffffffffffff168473ffffffffffffffffffffffffffffffffffffffff1603610b6e5760006040517fe602df05000000000000000000000000000000000000000000000000000000008152600401610b6591906111a9565b60405180910390fd5b600073ffffffffffffffffffffffffffffffffffffffff168373ffffffffffffffffffffffffffffffffffffffff1603610be05760006040517f94280d62000000000000000000000000000000000000000000000000000000008152600401610bd791906111a9565b60405180910390fd5b81600160008673ffffffffffffffffffffffffffffffffffffffff1673ffffffffffffffffffffffffffffffffffffffff16815260200190815260200160002060008573ffffffffffffffffffffffffffffffffffffffff1673ffffffffffffffffffffffffffffffffffffffff168152602001908152602001600020819055508015610ccd578273ffffffffffffffffffffffffffffffffffffffff168473ffffffffffffffffffffffffffffffffffffffff167f8c5be1e5ebec7d5bd14f71427d1e84f3dd0314c0f7b2291e5b200ac8c7c3b92584604051610cc491906110f5565b60405180910390a35b50505050565b600073ffffffffffffffffffffffffffffffffffffffff168373ffffffffffffffffffffffffffffffffffffffff1603610d25578060026000828254610d199190611405565b92505081905550610df8565b60008060008573ffffffffffffffffffffffffffffffffffffffff1673ffffffffffffffffffffffffffffffffffffffff16815260200190815260200160002054905081811015610db1578381836040517fe450d38c000000000000000000000000000000000000000000000000000000008152600401610da8939291906113ce565b60405180910390fd5b8181036000808673ffffffffffffffffffffffffffffffffffffffff1673ffffffffffffffffffffffffffffffffffffffff16815260200190815260200160002081905550505b600073ffffffffffffffffffffffffffffffffffffffff168273ffffffffffffffffffffffffffffffffffffffff1603610e415780600260008282540392505081905550610e8e565b806000808473ffffffffffffffffffffffffffffffffffffffff1673ffffffffffffffffffffffffffffffffffffffff168152602001908152602001600020600082825401925050819055505b8173ffffffffffffffffffffffffffffffffffffffff168373ffffffffffffffffffffffffffffffffffffffff167fddf252ad1be2c89b69c2b068fc378daa952ba7f163c4a11628f55a4df523b3ef83604051610eeb91906110f5565b60405180910390a3505050565b600081519050919050565b600082825260208201905092915050565b60005b83811015610f32578082015181840152602081019050610f17565b60008484015250505050565b6000601f19601f8301169050919050565b6000610f5a82610ef8565b610f648185610f03565b9350610f74818560208601610f14565b610f7d81610f3e565b840191505092915050565b60006020820190508181036000830152610fa28184610f4f565b905092915050565b600080fd5b600073ffffffffffffffffffffffffffffffffffffffff82169050919050565b6000610fda82610faf565b9050919050565b610fea81610fcf565b8114610ff557600080fd5b50565b60008135905061100781610fe1565b92915050565b6000819050919050565b6110208161100d565b811461102b57600080fd5b50565b60008135905061103d81611017565b92915050565b6000806040838503121561105a57611059610faa565b5b600061106885828601610ff8565b92505060206110798582860161102e565b9150509250929050565b60008115159050919050565b61109881611083565b82525050565b60006020820190506110b3600083018461108f565b92915050565b6000602082840312156110cf576110ce610faa565b5b60006110dd84828501610ff8565b91505092915050565b6110ef8161100d565b82525050565b600060208201905061110a60008301846110e6565b92915050565b60008060006060848603121561112957611128610faa565b5b600061113786828701610ff8565b935050602061114886828701610ff8565b92505060406111598682870161102e565b9150509250925092565b600060ff82169050919050565b61117981611163565b82525050565b60006020820190506111946000830184611170565b92915050565b6111a381610fcf565b82525050565b60006020820190506111be600083018461119a565b92915050565b600080604083850312156111db576111da610faa565b5b60006111e985828601610ff8565b92505060206111fa85828601610ff8565b9150509250929050565b60006020828403121561121a57611219610faa565b5b60006112288482850161102e565b91505092915050565b7f4e487b7100000000000000000000000000000000000000000000000000000000600052602260045260246000fd5b6000600282049050600182168061127857607f821691505b60208210810361128b5761128a611231565b5b50919050565b7f4e487b7100000000000000000000000000000000000000000000000000000000600052601160045260246000fd5b60006112cb8261100d565b91506112d68361100d565b92508282026112e48161100d565b915082820484148315176112fb576112fa611291565b5b5092915050565b7f4e487b7100000000000000000000000000000000000000000000000000000000600052601260045260246000fd5b600061133c8261100d565b91506113478361100d565b92508261135757611356611302565b5b828204905092915050565b7f50657263656e746167652063616e6e6f74206578636565642031303000000000600082015250565b6000611398601c83610f03565b91506113a382611362565b602082019050919050565b600060208201905081810360008301526113c78161138b565b9050919050565b60006060820190506113e3600083018661119a565b6113f060208301856110e6565b6113fd60408301846110e6565b949350505050565b60006114108261100d565b915061141b8361100d565b925082820190508082111561143357611432611291565b5b9291505056fea264697066735822122045a243bf76b2b1a23af688c061f35612cc7efb773b7bd7e6db9502607c13fc4264736f6c63430008140033",
  "linkReferences": {},
  "deployedLinkReferences": {}
}